:060000000A128A110C280F
:10000800FE00030EF3000A08F4000A128A118B2876
:100018000A128A110F28F601F701F80183010A1262
:100028008A11552801308316031788008901033087
:100038008316031386008312031386010130831687
:100048000313850087018801831203138701880140
:10005800850183160313811303309500033096003E
:100068008B150B103F30831203139F058316031360
:100078001F129F12C330831203139F0583160313A5
:100088009F13831203131F140330F500F50B4A283E
:10009800831203130C13831603130C170B178B17F8
:1000A80008000A128A1116200A128A1183120313F1
:1000B8009F185F28602861289F147703031D65280F
:1000C80066286B28831603130C13630073287708BC
:1000D800031D6F2870287328831603130C177608DE
:1000E8000A128A11D5200A128A1183120313870073
:1000F800A33083120313A1005430A000A00B822860
:10010800A10B822800005A280A128A110C2883128F
:1001180003130C1F9028912899281E08F2007208D2
:10012800F800780888000C13B9280B1C9C289D2817
:10013800B9280618A028A128AA287703031DA528EE
:10014800A628A828F701AA28F701F70A8618AD28D3
:10015800AE28B8287808F2007208F00076080A126B
:100168008A11C0200A128A110B1074088A00730EB3
:100178008300FE0E7E0E0900F1007108831203173A
:100188008D0070088C00831603178C130C158B13C5
:1001980055308D00AA308D008C140C110B108B1764
:1001A8000800F5007508831203178D0083160317DE
:0C01B8008C130C14831203170C080800B1
:08400000FF3FFF3FFF3FFF3FC0
:04400E00D420FF3F7C
:00000001FF
